{
	"data": {
		"bytecode": {
			"linkReferences": {},
			"object": "608060405234801561000f575f80fd5b506102748061001d5f395ff3fe608060405234801561000f575f80fd5b506004361061003f575f3560e01c806396ce89dc146100435780639d26c7871461005f578063b6c731741461007b575b5f80fd5b61005d6004803603810190610058919061016e565b610097565b005b6100796004803603810190610074919061016e565b6100dd565b005b6100956004803603810190610090919061016e565b610123565b005b600781116100da576040517f08c379a00000000000000000000000000000000000000000000000000000000081526004016100d1906101f3565b60405180910390fd5b50565b60078111610120576040517f08c379a0000000000000000000000000000000000000000000000000000000008152600401610117906101f3565b60405180910390fd5b50565b600f811461013457610133610211565b5b50565b5f80fd5b5f819050919050565b61014d8161013b565b8114610157575f80fd5b50565b5f8135905061016881610144565b92915050565b5f6020828403121561018357610182610137565b5b5f6101908482850161015a565b91505092915050565b5f82825260208201905092915050565b7f496e707574206d7573742062652067726561746572207468616e2037000000005f82015250565b5f6101dd601c83610199565b91506101e8826101a9565b602082019050919050565b5f6020820190508181035f83015261020a816101d1565b9050919050565b7f4e487b71000000000000000000000000000000000000000000000000000000005f52600160045260245ffdfea26469706673582212204fbb67f6692b31d4e8767f62b65e44765a4a196ebaabf3cb344f21b6e582fe7464736f6c63430008160033",
			"opcodes": "PUSH1 0x80 PUSH1 0x40 MSTORE CALLVALUE DUP1 ISZERO PUSH2 0xF JUMPI PUSH0 DUP1 REVERT JUMPDEST POP PUSH2 0x274 DUP1 PUSH2 0x1D PUSH0 CODECOPY PUSH0 RETURN INVALID PUSH1 0x80 PUSH1 0x40 MSTORE CALLVALUE DUP1 ISZERO PUSH2 0xF JUMPI PUSH0 DUP1 REVERT JUMPDEST POP PUSH1 0x4 CALLDATASIZE LT PUSH2 0x3F JUMPI PUSH0 CALLDATALOAD PUSH1 0xE0 SHR DUP1 PUSH4 0x96CE89DC EQ PUSH2 0x43 JUMPI DUP1 PUSH4 0x9D26C787 EQ PUSH2 0x5F JUMPI DUP1 PUSH4 0xB6C73174 EQ PUSH2 0x7B JUMPI JUMPDEST PUSH0 DUP1 REVERT JUMPDEST PUSH2 0x5D PUSH1 0x4 DUP1 CALLDATASIZE SUB DUP2 ADD SWAP1 PUSH2 0x58 SWAP2 SWAP1 PUSH2 0x16E JUMP JUMPDEST PUSH2 0x97 JUMP JUMPDEST STOP JUMPDEST PUSH2 0x79 PUSH1 0x4 DUP1 CALLDATASIZE SUB DUP2 ADD SWAP1 PUSH2 0x74 SWAP2 SWAP1 PUSH2 0x16E JUMP JUMPDEST PUSH2 0xDD JUMP JUMPDEST STOP JUMPDEST PUSH2 0x95 PUSH1 0x4 DUP1 CALLDATASIZE SUB DUP2 ADD SWAP1 PUSH2 0x90 SWAP2 SWAP1 PUSH2 0x16E JUMP JUMPDEST PUSH2 0x123 JUMP JUMPDEST STOP JUMPDEST PUSH1 0x7 DUP2 GT PUSH2 0xDA JUMPI PUSH1 0x40 MLOAD PUSH32 0x8C379A000000000000000000000000000000000000000000000000000000000 DUP2 MSTORE PUSH1 0x4 ADD PUSH2 0xD1 SWAP1 PUSH2 0x1F3 JUMP JUMPDEST PUSH1 0x40 MLOAD DUP1 SWAP2 SUB SWAP1 REVERT JUMPDEST POP JUMP JUMPDEST PUSH1 0x7 DUP2 GT PUSH2 0x120 JUMPI PUSH1 0x40 MLOAD PUSH32 0x8C379A000000000000000000000000000000000000000000000000000000000 DUP2 MSTORE PUSH1 0x4 ADD PUSH2 0x117 SWAP1 PUSH2 0x1F3 JUMP JUMPDEST PUSH1 0x40 MLOAD DUP1 SWAP2 SUB SWAP1 REVERT JUMPDEST POP JUMP JUMPDEST PUSH1 0xF DUP2 EQ PUSH2 0x134 JUMPI PUSH2 0x133 PUSH2 0x211 JUMP JUMPDEST JUMPDEST POP JUMP JUMPDEST PUSH0 DUP1 REVERT JUMPDEST PUSH0 DUP2 SWAP1 POP SWAP2 SWAP1 POP JUMP JUMPDEST PUSH2 0x14D DUP2 PUSH2 0x13B JUMP JUMPDEST DUP2 EQ PUSH2 0x157 JUMPI PUSH0 DUP1 REVERT JUMPDEST POP JUMP JUMPDEST PUSH0 DUP2 CALLDATALOAD SWAP1 POP PUSH2 0x168 DUP2 PUSH2 0x144 JUMP JUMPDEST SWAP3 SWAP2 POP POP JUMP JUMPDEST PUSH0 PUSH1 0x20 DUP3 DUP5 SUB SLT ISZERO PUSH2 0x183 JUMPI PUSH2 0x182 PUSH2 0x137 JUMP JUMPDEST JUMPDEST PUSH0 PUSH2 0x190 DUP5 DUP3 DUP6 ADD PUSH2 0x15A JUMP JUMPDEST SWAP2 POP POP SWAP3 SWAP2 POP POP JUMP JUMPDEST PUSH0 DUP3 DUP3 MSTORE PUSH1 0x20 DUP3 ADD SWAP1 POP SWAP3 SWAP2 POP POP JUMP JUMPDEST PUSH32 0x496E707574206D7573742062652067726561746572207468616E203700000000 PUSH0 DUP3 ADD MSTORE POP JUMP JUMPDEST PUSH0 PUSH2 0x1DD PUSH1 0x1C DUP4 PUSH2 0x199 JUMP JUMPDEST SWAP2 POP PUSH2 0x1E8 DUP3 PUSH2 0x1A9 JUMP JUMPDEST PUSH1 0x20 DUP3 ADD SWAP1 POP SWAP2 SWAP1 POP JUMP JUMPDEST PUSH0 PUSH1 0x20 DUP3 ADD SWAP1 POP DUP2 DUP2 SUB PUSH0 DUP4 ADD MSTORE PUSH2 0x20A DUP2 PUSH2 0x1D1 JUMP JUMPDEST SWAP1 POP SWAP2 SWAP1 POP JUMP JUMPDEST PUSH32 0x4E487B7100000000000000000000000000000000000000000000000000000000 PUSH0 MSTORE PUSH1 0x1 PUSH1 0x4 MSTORE PUSH1 0x24 PUSH0 REVERT INVALID LOG2 PUSH5 0x6970667358 0x22 SLT KECCAK256 0x4F 0xBB PUSH8 0xF6692B31D4E8767F PUSH3 0xB65E44 PUSH23 0x5A4A196EBAABF3CB344F21B6E582FE7464736F6C634300 ADDMOD AND STOP CALLER "
		},
		"gasEstimates": {
			"creation": {
				"codeDepositCost": "125600",
				"executionCost": "169",
				"totalCost": "125769"
			},
			"external": {
				"AssertFunc(uint256)": "471",
				"RequireFunc(uint256)": "684",
				"RevertFunc(uint256)": "706"
			}
		},
		"methodIdentifiers": {
			"AssertFunc(uint256)": "b6c73174",
			"RequireFunc(uint256)": "96ce89dc",
			"RevertFunc(uint256)": "9d26c787"
		}
	},
	"abi": [
		{
			"inputs": [
				{
					"internalType": "uint256",
					"name": "num",
					"type": "uint256"
				}
			],
			"name": "AssertFunc",
			"outputs": [],
			"stateMutability": "pure",
			"type": "function"
		},
		{
			"inputs": [
				{
					"internalType": "uint256",
					"name": "i",
					"type": "uint256"
				}
			],
			"name": "RequireFunc",
			"outputs": [],
			"stateMutability": "pure",
			"type": "function"
		},
		{
			"inputs": [
				{
					"internalType": "uint256",
					"name": "i",
					"type": "uint256"
				}
			],
			"name": "RevertFunc",
			"outputs": [],
			"stateMutability": "pure",
			"type": "function"
		}
	]
}